:100000000C9468010C9499010C9499010C94990139
:100010000C9499010C9499010C9499010C949901F8
:100020000C9499010C9499010C9499010C949901E8
:100030000C9499010C9499010C9499010C949901D8
:100040000C9499010C94FD0C0C9499010C94990159
:100050000C9499010C9499010C9499010C94290C1D
:100060000C9499010C94F30B0C94C90B0C9499010A
:100070000C9499010C9499010C9499010C94990198
:100080000C94CF0C0C9499010C9499010C94990147
:100090000C9499010C9499010C9499010C94990178
:1000A0000C9499010C9499010C94A10C0C94990155
:1000B0000C9499010C9499010C9499010C94730C73
:1000C0000C9499010C9499010C9499010C94990148
:1000D0000C9499010C9499010C9499010C94990138
:1000E0000C9499010C947C020C94C6030C94260782
:1000F0000C9404060C9498070C9412060C94640754
:100100000C94AE070C9499030C94B2030C944B021C
:100110000C94C70B0C949F070C9410060C940709C1
:100120000C948A070C94DF050C94B8030C94870395
:100130000C94C0030C94A5030C9408060C94680658
:100140000C9494050C94D8030C9489060C949D038C
:100150000C9410070C94AE030C9482030C94EE0DD7
:100160000C94A8030C940E060C94CE030C94BD06BC
:100170000C94AD070C940A060C94DE060C94A103B3
:100180000C94D4030C940C060C941E020C945A028A
:100190000C94CA030C9406060C9401030C947B0780
:1001A0000C94B4020C94A6070C9491070C9483074A
:1001B0000C946E020C94BC030C94C20500000A0B54
:1001C00002090C0D0E0807030401000000000000E6
:1001D000000000000000000000000000000000001F
:1001E00000000000000000001211100000000000DC
:1001F00000000000000000000000000000000000FF
:1002000000000A0B0C0D0E0F000102030405000094
:100210002200250028002B002E00310034000201AE
:100220000000050108010B01000021002400270047
:100230002A002D00300033000101000004010701F5
:100240000A0105050505070508080808020202025B
:100250000A0A080804040404010101010101010162
:100260000303030303030303040707070C0C0C0C2D
:100270000C0C0C0C02020202060606060606060616
:100280000B0B0B0B0B0B0B0B0102102020080810A3
:1002900020401020408002010201080402010102F6
:1002A00004081020408080402010080402018004CF
:1002B000020180402010080402010804020101022A
:1002C0000408102040800102040810204080EE0D38
:1002D00011241FBECFEFD1E2DEBFCDBF00E00CBFC7
:1002E00012E0A0E0B2E0E2E4FEE200E00BBF02C0F8
:1002F00007900D92AC34B107D9F724E0ACE4B2E03A
:1003000001C01D92A731B207E1F711E0C8E6D1E0C4
:1003100000E006C021970109802FFE010E94F2151E
:10032000C736D10780E00807A9F70E949D0E0C94FC
:100330001F170C94000090E0FC01E857FD4F24913A
:100340008E5B9D4FFC018491882399F090E0880F8B
:10035000991FFC01E85DFD4FA591B491FC01E25F9E
:10036000FD4F859194918FB7F894EC91E22BEC932B
:100370008FBF08958F929F92AF92BF92FF920F937B
:100380001F93CF93DF93FC01F0808FE28F1508F469
:100390004BC0828108E512E0081B110987FD139507
:1003A000000F111F000F111F8181C8E8D0E0C81B8A
:1003B000D10987FDD395CC0FDD1FCC0FDD1F4E017A
:1003C0000D2E000CAA08BB089801012E000C440B4E
:1003D000550B281939094A095B09AAE5B0E00E94C2
:1003E000111324EB30E040E050E00E94F212820E44
:1003F000931EA41EB51E8C169D062CF0E8018016D7
:1004000091060CF4E4012297CC0FDD1F2FB7F8946E
:100410008F2D90E0FC01EE0FFF1FE80FF91FE55A4A
:10042000FD4FD283C1832FBFDF91CF911F910F91D9
:10043000FF90BF90AF909F908F900895AF92BF9222
:10044000CF92DF92EF92FF920F931F93CF93DF93A0
:100450006C017B018B01040F151FEB015E01AE18CF
:10046000BF08C017D10759F06991D601ED91FC91F1
:100470000190F081E02DC6011995892B79F7C5010E
:10048000DF91CF911F910F91FF90EF90DF90CF9070
:10049000BF90AF900895FC01538D448D252F30E01F
:1004A000842F90E0821B930B541710F0CF96089581
:1004B00001970895FC01918D828D981761F0A28DAE
:1004C000AE0FBF2FB11D5D968C91928D9F5F9F7374
:1004D000928F90E008958FEF9FEF0895FC01918D2A
:1004E000828D981731F0828DE80FF11D858D90E097
:1004F00008958FEF9FEF0895FC01918D228D892F34
:1005000090E0805C9F4F821B91098F73992708951B
:100510008BEE92E00E947C0221E0892B09F420E01E
:10052000822F0895FC01A48DA80FB92FB11DA35AE5
:10053000BF4F2C91848D90E001968F739927848F03
:10054000A689B7892C93A089B1898C918370806426
:100550008C93938D848D981306C00288F389E02DC7
:1005600080818F7D80830895EF92FF920F931F9378
:10057000CF93DF93EC0181E0888F9B8D8C8D981356
:100580001AC0E889F989808185FF15C09FB7F89462
:10059000EE89FF896083E889F989808183708064AE
:1005A00080839FBF81E090E0DF91CF911F910F91F9
:1005B000FF90EF900895F62E0B8D10E00F5F1F4F08
:1005C0000F731127E02E8C8D8E110CC00FB607FC17
:1005D000FACFE889F989808185FFF5CFCE010E94A5
:1005E0009202F1CFEB8DEC0FFD2FF11DE35AFF4F7F
:1005F000F0829FB7F8940B8FEA89FB898081806233
:10060000CFCFCF93DF93EC01888D8823B9F0AA89EF
:10061000BB89E889F9898C9185FD03C0808186FDBD
:100620000DC00FB607FCF7CF8C9185FFF2CF80810C
:1006300085FFEDCFCE010E949202E9CFDF91CF91ED
:10064000089580E090E0892B29F00E9488028111B2
:100650000E94000080E090E0892B49F080E090E06B
:10066000892B29F00E94000081110E94000080E087
:1006700090E0892B49F080E090E0892B29F00E94DE
:10068000000081110E94000080E090E0892B49F079
:1006900080E090E0892B29F00E94000081110C94E9
:1006A00000000895282F30E0F901E454FE4F9491A2
:1006B000F901E857FD4F44912E5B3D4FF90124911C
:1006C000222309F435C0992311F191509231F8F4A5
:1006D000E92FF0E08827E059FC4F8F4F0C94F2157A
:1006E000A103A503820399039D038703A803AE0317
:1006F000B203B803BC03C003C603CA038703CE0317
:10070000D403D803809180008F7780938000E22FFC
:10071000F0E0EE0FFF1FE25FFD4FA591B4918FB7A0
:10072000F894EC91611148C040954E234C938FBFD3
:100730000895809180008F7DE8CF80918000877F31
:10074000E4CF84B58F7784BDE2CF84B58F7DFBCFB6
:100750008091B0008F778093B000D9CF8091B000A6
:100760008F7DF9CF809190008F7780939000CFCFCD
:10077000809190008F7DF9CF80919000877FF5CF99
:100780008091A0008F778093A000C1CF8091A000BE
:100790008F7DF9CF8091A000877FF5CF80912001D8
:1007A0008F7780932001B3CF809120018F7DF9CF87
:1007B00080912001877FF5CF4E2BB8CF682F809195
:1007C000F8030E94520380910F049091100482302C
:1007D000910538F0880F991F880F991F0597019789
:1007E000F1F7089581E00C94DE033FB7F89480910F
:1007F000560290915702A0915802B091590226B525
:10080000A89B05C02F3F19F00196A11DB11D3FBF48
:10081000BA2FA92F982F8827BC01CD01620F711D17
:10082000811D911D42E0660F771F881F991F4A9511
:10083000D1F708958EBD00000DB407FEFDCF8EB533
:1008400008951F93CF93DF93EC01162F8881803397
:1008500008F04DC0862F0E949B018881282F30E030
:10086000F901EE0FFF1FE20FF31FE55AFD4F1F7353
:100870006081607C612B608319821A822CE0622F78
:100880000E94E615829FB001112430E020E0AB0108
:10089000420F531FFA01EE0FFF1FE40FF51FE55A39
:1008A000FD4F908196FD16C02F5F3F4F2C303105D4
:1008B00071F7813009F51092800082E08093810009
:1008C0001092850010928400B19A80916F0082602E
:1008D00080936F00E8818E2F90E0FC01EE0FFF1FE8
:1008E000E80FF91FE55AFD4F80818064808388817D
:1008F000DF91CF911F910895823061F410929000A2
:1009000080939100109295001092940088BB809380
:100910007100E0CF833069F41092A00082E08093F0
:10092000A1001092A5001092A40089BB80937200D0
:10093000D1CF8111CFCF1092200182E0809321018D
:1009400010922501109224018ABB80937300C2CFBC
:10095000AF92BF92CF92DF92EF92FF920F931F93CD
:10096000CF93DF936B017A01EC01C45BDD4F2881EB
:100970003CE0389F8001399F100D1124A090500257
:10098000B12C27FF1FC0FB011182108288818F5F6D
:10099000888388819801280F311D87FD3A95F601DB
:1009A0002A153B051CF488818C30C4F1808191812B
:1009B000049680349C4908F473C0F60180819181CB
:1009C000049670C088819801280F311D87FD3A95E3
:1009D0002A153B05DCF68881A801480F511D87FDCB
:1009E0005A95FA01EE0FFF1FE40FF51FE55AFD4F70
:1009F000808186FFCBCF8881F801E80FF11D87FD4C
:100A0000FA95CF01EE0FFF1FE80FF91FE55AFD4FD2
:100A1000808160E08F730E945203B8CF8081918102
:100A20002881A801420F511D27FD5A959A01FA010C
:100A3000EE0FFF1FE20FF31FE55AFD4F21813281B8
:100A4000820F931FF7019183808388819801280F7B
:100A5000311D87FD3A95F901EE0FFF1FE20FF31FDD
:100A6000E55AFD4F808186FF22C08881080F111D45
:100A700087FD1A95F801EE0FFF1FE00FF11FE55AF1
:100A8000FD4F808161E08F73DF91CF911F910F91B6
:100A9000FF90EF90DF90CF90BF90AF900C945203F7
:100AA00080E49CE9F701918380838FEF8883DF9155
:100AB000CF911F910F91FF90EF90DF90CF90BF905B
:100AC000AF900895CF92DF92EF92FF92CF93DF9392
:100AD000EC01688D798D8A8D9B8D9B01AC010E9404
:100AE0001E156B017C0168A179A18AA19BA19B01C4
:100AF000AC010E944E139B01AC01C701B6010E94DC
:100B0000BF130E9431146CAB7DAB8EAB9FABE88101
:100B1000F9810084F185E02DCE01DF91CF91FF9026
:100B2000EF90DF90CF901994CF93DF93FC01278152
:100B3000222329F1EC0180850E949B0189850E9476
:100B40009B018F81843011F0883099F48A850E944E
:100B50009B018B850E949B018FA58F3F81F00E9496
:100B60009B016EA581E068278FA5DF91CF910C9442
:100B70005203833011F0863079F78A85EBCFDF910D
:100B8000CF910895CF93DF93FC0127812223A1F019
:100B9000EC010190F081E02D0284F385E02D60E00E
:100BA00019958FA58F3F41F00E949B016EA58FA5DF
:100BB000DF91CF910C945203DF91CF910895DC0126
:100BC000ED91FC9111972285338547705527662753
:100BD0007727415051096109710947305105610575
:100BE000710570F4FA018827E750FA4F8F4F0C9483
:100BF000F2150406060608060A060C060E0610067E
:100C000061E0CD01F901199465E0FBCF64E0F9CF13
:100C100066E0F7CF62E0F5CF6AE0F3CF68E0F1CFAE
:100C200069E0EFCFCF93DF93EC01CB01BA0126E06F
:100C300030E040E050E00E94F21262307105810520
:100C4000910589F16CF46115710581059105D1F06B
:100C50006130710581059105F9F0DF91CF9108951B
:100C6000643071058105910561F124F165307105EC
:100C70008105910591F7E881F9810284F385E02DE2
:100C800066E006C0E881F9810284F385E02D64E026
:100C9000CE01DF91CF911994E881F9810284F38527
:100CA000E02D65E0F5CFE881F9810284F385E02D40
:100CB00061E0EECFE881F9810284F385E02D63E005
:100CC000E7CFE881F9810284F385E02D62E0E0CF8F
:100CD000DC01ED91FC910284F385E02D43705527F2
:100CE00066277727423051056105710571F0433061
:100CF00051056105710559F04130510561057105D6
:100D000011F065E0199466E0FDCF6AE0FBCF69E081
:100D1000F9CFCF93DF93EC01CB01BA0123E030E0B0
:100D200040E050E00E94F2126130710581059105AA
:100D300099F06230710581059105A9F0672B682B48
:100D4000692BC1F4E881F9810284F385E02D64E028
:100D5000CE01DF91CF911994E881F9810284F38566
:100D6000E02D61E0F5CFE881F9810284F385E02D83
:100D700062E0EECFDF91CF910895DC01ED91FC911F
:100D80000284F385E02D437055276627772742308C
:100D900051056105710571F043305105610571051B
:100DA00059F0413051056105710511F062E0199467
:100DB00063E0FDCF61E0FBCF60E0F9CFCF93DF933D
:100DC000EC01E881F9810284F385E02D8A8160E0FD
:100DD000811162E0CE011995E881F9810284F385E1
:100DE000E02D8A8161E0811163E0CE0119958CA527
:100DF0009DA58230910538F0880F991F880F991FA3
:100E000005970197F1F7E881F9810284F385E02DD8
:100E10008A8160E0811162E0CE01DF91CF91199467
:100E2000CF93DF93EC0120E030E0A901688D798D4C
:100E30008A8D9B8D0E94191518162CF4E8A9F9A922
:100E4000DF91CF911994EAA9FBA9FACFCF92DF9253
:100E5000EF92FF920F931F93CF93DF93DC011796CE
:100E6000CC91C43039F0C83059F1C33019F0C630D4
:100E700049F1C2E08C01085F1F4FF12CE12CC62E16
:100E8000D12CD1E0F8016481C6010E2C02C09595E9
:100E900087950A94E2F780FD6D270F5F1F4F8081D1
:100EA0000E945203BFEFEB1AFB0AEC1658F3DF91D6
:100EB000CF911F910F91FF90EF90DF90CF90089509
:100EC000C4E0D8CFC3E0D6CFDC011796EC911797DA
:100ED000E93008F042C0F0E08827EE58F84F8F4F15
:100EE0000C94F2157B0783078A0791079807AD07D3
:100EF0009F07AD07A607ED91FC9111970684F78532
:100F0000E02DCD011994ED91FC9111970088F189A4
:100F1000E02DF7CFED91FC9111970288F389E02D38
:100F2000F0CFED91FC9111970488F589E02DE9CF80
:100F3000ED91FC9111970688F789E02DE2CFED91B4
:100F4000FC911197008CF18DE02DDBCFED91FC91A0
:100F50001197028CF38DE02DD4CF08954F925F92BC
:100F60006F927F928F929F92AF92BF92CF92DF92B9
:100F7000EF92FF920F931F93CF93DF93EC01CC88F6
:100F8000DD88EE88FF8888899989AA89BB89C81A73
:100F9000D90AEA0AFB0A688D798D8A8D9B8D9B019F
:100FA000AC010E941E154B015C0168A179A18AA1C8
:100FB0009BA19B01AC010E944E139B01AC01C5019A
:100FC000B4010E94BF130E943114C114D104E10482
:100FD000F10409F0B6C062307105810591050CF08D
:100FE000D0C01B821C821D821E82188E198E1A8E02
:100FF0001B8E1CAA1DAA1EAA1FAAC12CD12C7601C9
:10100000C701B601DF91CF911F910F91FF90EF9033
:10101000DF90CF90BF90AF909F908F907F906F9018
:101020005F904F9008951016110612061306B4F43F
:101030006C157D058E059F051CF42A812111A1C028
:101040009B01AC0188279927DC01821B930BA40B21
:10105000B50B8CAB9DABAEABBFAB93C0011511050F
:101060002105310509F48DC06C157D058E059F05A0
:101070000CF087C08A81882309F483C030952095BD
:10108000109501951F4F2F4F3F4F0CAB1DAB2EAB53
:101090003FAB77C0011511052105310509F471C079
:1010A0008824992454018C189D08AE08BF0868153F
:1010B00079058A059B050CF064C08A81811161C0A5
:1010C000DDCFCCACDDACEEACFFACA7019601C70127
:1010D000B6010E944E132B013C01C501B4010E94D0
:1010E000691420E030E040E850E40E941E1520E042
:1010F00030E040E85FE30E944E139B01AC01C30166
:10110000B2010E94BF139B01AC01C701B6010E944E
:101110004D133B016C01FE01E05CFF4FE080F1806C
:10112000028113819701A8010E941915181614F461
:1011300073018601C701D8018CAF9DAFAEAFBFAFC1
:101140003AC00CA91DA92EA93FA91C141D041E04F8
:101150001F040CF468CF10161106120613060CF0CB
:1011600099CF0027112798010C191D092E093F0955
:1011700060177107820793070CF062CF2A81211153
:101180005FCF8CA89DA8AEA8BFA881149104A1042C
:10119000B10409F096CF88AD99ADAAADBBAD8CAFC7
:1011A0009DAFAEAFBFAF81E01C141D041E041F0431
:1011B0000CF080E08A833FEF831A930AA30AB30AF4
:1011C0008CAA9DAAAEAABFAA8CAC9DACAEACBFAC9B
:1011D000C501B4010E9438146B017C01CB82DC8212
:1011E000ED82FE82A501940160E074E284E799E457
:1011F0000E94BF13688F798F8A8F9B8F2A8121115C
:10120000FFCE9058688F798F8A8F9B8FF9CE089583
:10121000CF93DF93EC0181E0888760E08C810E94AE
:1012200052038885DF91CF910895CF93DF93EC012E
:10123000188661E08C810E9452038885DF91CF91EE
:101240000895CF92DF92EF92FF920F931F93CF9367
:10125000DF93FC012385222309F464C08C01C1853E
:10126000D2858B819C81AD81BE81892B8A2B8B2B72
:10127000E1F10E94F5036B017C0188A599A5AAA55F
:10128000BBA5B701A601481B590B6A0B7B0B8B81D1
:101290009C81AD81BE81481759076A077B0728F1F9
:1012A00088899989AA89BB892A81222309F443C0A4
:1012B0000196A11DB11D888B998BAA8BBB8B488988
:1012C00059896A897B89E881F9810484F585E02D53
:1012D000CE011995C8A6D9A6EAA6FBA6E881F98190
:1012E0000084F185E02DCE011995F801C185D285E4
:1012F00020E030E0A901688D798D8A8D9B8D0E9458
:10130000BA1381110FC04C895D896E897F898889E4
:101310009989AA89BB89481759076A077B0711F47D
:10132000F8011386DF91CF911F910F91FF90EF90FD
:10133000DF90CF9008950197A109B109BCCFCF925A
:10134000DF92EF92FF92CF93DF93EC016A017B0172
:10135000A985BA8554964D915D916D917C91579771
:10136000C416D506E606F70671F05496CD92DD92C6
:10137000ED92FC925797ED91FC9111970084F185C5
:10138000E02DCD01199581E08B87DF82CE82CE01E1
:10139000DF91CF91FF90EF90DF90CF900C940809F0
:1013A0000F931F930091F9031091FA032091FB030F
:1013B0003091FC0340E052E16AE770E080E00417FE
:1013C00015072607370740F4769567955795479593
:1013D0008F5F8630A1F787E0982F906A9695809569
:1013E00081709CBD8DBD80E01F910F910C94DE0338
:1013F000CF93C82F0E94D0098C2F80620E941A04BC
:101400008093FD03CF910C94F203CF93C82F0E94D9
:10141000D0098C2F0E941A048093FD038FEF0E9445
:101420001A04C82F0E94F2038C2FCF910895FF92C7
:101430000F931F93CF93DF93C82FF62E072F142FF0
:101440000E94D0098C2F80620E941A048093FD03B1
:10145000CF2DD02F115020F089910E941A04FACF7D
:10146000DF91CF911F910F91FF900C94F2030E9496
:10147000D00980E50E941A048093FD0383E70E944F
:101480001A040C94F203CF93DF93D82FC62F0E9437
:10149000D0098D2F80620E941A048093FD038C2F47
:1014A0000E941A04DF91CF910C94F203609104041E
:1014B00061FD0AC062606093040480E00E94430AF8
:1014C0008BE19EE40197F1F70895FC010190002063
:1014D000E9F73197AF01481B590BBC018BEE92E045
:1014E0000C941E028F929F92AF92BF92CF92DF9286
:1014F000EF92FF920F931F93CF93DF93CDB7DEB799
:10150000A1970FB6F894DEBF0FBECDBF6C01990F47
:10151000EE08FF08F7FE47C06DE28BEE92E00E94F6
:10152000B4028C0122273327A9012C193D094E0949
:101530005F0919A2CE0181967C019AE0892E912C37
:10154000A12CB12CCA01B901A50194010E941C1360
:10155000605DF70162937F01211531054105510559
:1015600089F790E080E0309719F0CF010E94650A7A
:10157000080F191F8EE392E00E94650A800F911FE9
:10158000A1960FB6F894DEBF0FBECDBFDF91CF910D
:101590001F910F91FF90EF90DF90CF90BF90AF9091
:1015A0009F908F900895A701960119A28E010F5D5B
:1015B0001F4F8AE0C82ED12CE12CF12CCA01B901B1
:1015C000A70196010E941C13605DF80162938F01D0
:1015D000211531054105510589F7309729F0CF01D3
:1015E0000E94650A8C01C6CF10E000E0C3CF4F9285
:1015F0005F926F927F928F929F92AF92BF92CF92A3
:10160000DF92EF92FF92CF93DF93EC016A017B01AF
:1016100020E030E0A901CB01B6010E94BA1387FF98
:1016200004C0F7FAF094F7F8F09488A099A0AAA063
:10163000BBA0A7019601C501B4010E94BA1388237B
:1016400009F44DC06CA97DA98EA99FA90E946914B7
:101650002B013C01A7019601C501B4010E94BF13F3
:101660009B01AC01C301B2010E941E150E943114FE
:101670006CAB7DAB8EAB9FABA701960160E070E0D9
:1016800080E090E40E94BF130E94911526E53EE0A1
:101690004DE25FE30E941E1520E034E244E759E486
:1016A0000E941E1568AF79AF8AAF9BAFC8A2D9A2BE
:1016B000EAA2FBA2E881F9810084F185E02DCE0148
:1016C000DF91CF91FF90EF90DF90CF90BF90AF90E0
:1016D0009F908F907F906F905F904F901994DF91C3
:1016E000CF91FF90EF90DF90CF90BF90AF909F9001
:1016F0008F907F906F905F904F9008950F931F93FE
:10170000CF93DF93EC018C810E949B0161E08C817F
:101710000E94520381E0888709851A8520E030E025
:1017200048E454E4F801648D758D868D978D0E9490
:10173000BA13882301F180E090E0A8E4B4E4F80152
:10174000848F958FA68FB78F80E090E4ACE9B4E4E6
:10175000E05CFF4F80839183A283B383F80184A967
:1017600095A9A6A9B7A9181619061A061B061CF4EE
:10177000C8010E94620540E050E06AE775E489858F
:101780009A85DF91CF911F910F910C94F70A0C94D9
:1017900096161F920F920FB60F9211240BB60F924E
:1017A0002F933F934F935F936F937F938F939F9369
:1017B000AF93BF93EF93FF938BEE92E00E94920260
:1017C000FF91EF91BF91AF919F918F917F916F9119
:1017D0005F914F913F912F910F900BBE0F900FBED5
:1017E0000F901F9018951F920F920FB60F92112411
:1017F0000BB60F922F938F939F93EF93FF93E091EC
:10180000FB02F091FC028081E0910103F091020360
:1018100082FD1DC09081809104038F5F8F732091A2
:101820000503821741F0E0910403F0E0E551FD4F1C
:10183000958F80930403FF91EF919F918F912F914A
:101840000F900BBE0F900FBE0F901F9018958081C8
:10185000F2CF1F920F920FB60F9211242F933F9346
:101860008F939F93AF93BF938091520290915302B5
:10187000A0915402B09155023091510223E0230F00
:101880002D3758F50196A11DB11D2093510280936B
:10189000520290935302A0935402B0935502809148
:1018A000560290915702A0915802B09159020196A8
:1018B000A11DB11D8093560290935702A093580228
:1018C000B0935902BF91AF919F918F913F912F910A
:1018D0000F900FBE0F901F90189526E8230F0296C9
:1018E000A11DB11DD2CF1F920F920FB60F921124DE
:1018F0000BB60F922F933F934F935F936F937F930A
:101900008F939F93AF93BF93EF93FF9348E251E080
:1019100064E271E090E080E00E94A804FF91EF9102
:10192000BF91AF919F918F917F916F915F914F91F7
:101930003F912F910F900BBE0F900FBE0F901F90F5
:1019400018951F920F920FB60F9211240BB60F929B
:101950002F933F934F935F936F937F938F939F93B7
:10196000AF93BF93EF93FF9348EA50E064EA70E0CF
:1019700083E090E00E94A804FF91EF91BF91AF91A6
:101980009F918F917F916F915F914F913F912F9197
:101990000F900BBE0F900FBE0F901F9018951F92C7
:1019A0000F920FB60F9211240BB60F922F933F9305
:1019B0004F935F936F937F938F939F93AF93BF9357
:1019C000EF93FF9348E950E064E970E082E090E033
:1019D0000E94A804FF91EF91BF91AF919F918F91C9
:1019E0007F916F915F914F913F912F910F900BBE1F
:1019F0000F900FBE0F901F9018951F920F920FB669
:101A00000F9211240BB60F922F933F934F935F9336
:101A10006F937F938F939F93AF93BF93EF93FF93B6
:101A200048E850E064E870E081E090E00E94A8049B
:101A3000FF91EF91BF91AF919F918F917F916F91A6
:101A40005F914F913F912F910F900BBE0F900FBE62
:101A50000F901F901895FC0190915002903398F4CC
:101A600081E0890F809350029083892F90E0FC01E0
:101A7000EE0FFF1FE80FF91FE55AFD4F88EB9BE0C3
:101A80009283818308958FEF80830895AF92BF92F0
:101A9000CF92DF92EF92FF920F931F93CF93DF933A
:101AA0008C01A42EB22EFC011386758364834083BF
:101AB0005183228333831782168284E490E00E944C
:101AC000FA15EC018AE092E09983888381E08F83A4
:101AD000188A198A1A8A1B8A1C8A1D8A1E8A1F8ADA
:101AE000188E198E1A8E1B8E1C8E1D8E1E8E1F8EAA
:101AF00018A219A21AA21BA2C12CD12C80E8E82E90
:101B00008FE3F82ECCA2DDA2EEA2FFA21B821C82E4
:101B10001D821E8281E090E09DA78CA78FEF8FA78A
:101B200018A619A61AA61BA6A886B98684E08A87D5
:101B300085E08B871EA61CAA1DAA1EAA1FAA18AE86
:101B400019AE1AAE1BAE1CAE1DAE1EAE1FAE5E01B0
:101B5000F0E4AF0EB11CF501C082D182E282F382C3
:101B60001A821C861D861E861F86CE010E94940541
:101B7000B701A601CE010E94F70AA70196016C8D5C
:101B80007D8D8E8D9F8D0E94BA138823C9F0CC8ED7
:101B9000DD8EEE8EFF8E80E094E2A4E7B9E4F501DD
:101BA00080839183A283B3838CA99DA9AEA9BFA989
:101BB000181619061A061B061CF4CE010E946205AF
:101BC000F801D287C187DF91CF911F910F91FF90CC
:101BD000EF90DF90CF90BF90AF900895EBEEF2E0E2
:101BE0001382128288EE93E0A0E0B0E084839583B4
:101BF000A683B78380E392E09183808385EC90E0B5
:101C00009587848784EC90E09787868780EC90E0C6
:101C1000918B808B81EC90E0938B828B82EC90E0B7
:101C2000958B848B86EC90E0978B868B118E128E31
:101C3000138E148EE5EFF3E08BE082838CE08383D8
:101C400080E896E9A8E9B0E084839583A683B7830A
:101C500080E28187108A118A85E0838B81E0848B02
:101C600085E090E0A0E0B0E0828F938FA48FB58FE5
:101C700088E893E091838083128682EF93E00E944C
:101C80002B0D8FEE93E00E942B0D8CEE93E00E94C3
:101C90002B0D89EE93E00E942B0D28E130E047E107
:101CA00050E066E170E08DED93E00E94460D2BE17F
:101CB00030E04AE150E069E170E081ED93E00E949C
:101CC000460D2EE130E04DE150E06CE170E085EC36
:101CD00093E00E94460D21E230E040E250E06FE1E7
:101CE00070E089EB93E00E94460D24E230E043E28D
:101CF00050E062E270E08DEA93E00E94460D27E238
:101D000030E046E250E065E270E081EA93E00E9454
:101D1000460D2AE230E049E250E068E270E085E9F1
:101D200093E00E94460D2DE230E04CE250E06BE281
:101D300070E089E893E00C94460DCF93DF93CDB724
:101D4000DEB72C970FB6F894DEBF0FBECDBF7894E8
:101D500084B5826084BD84B5816084BD85B58260B0
:101D600085BD85B5816085BD80916E008160809361
:101D70006E001092810080918100826080938100CA
:101D800080918100816080938100809180008160DA
:101D9000809380008091B10084608093B100809135
:101DA000B00081608093B000809191008260809348
:101DB00091008091910081608093910080919000CA
:101DC0008160809390008091A10082608093A10047
:101DD0008091A10081608093A1008091A00081602A
:101DE0008093A000809121018260809321018091E5
:101DF0002101816080932101809120018160809385
:101E0000200180917A00846080937A0080917A002A
:101E1000826080937A0080917A00816080937A005A
:101E200080917A00806880937A001092C100E091DE
:101E3000FB02F091FC0282E08083E091F702F091D6
:101E4000F8021082E091F902F091FA0280E18083B9
:101E500010920303E091FF02F091000386E080837B
:101E6000E091FD02F091FE02808180618083E0912B
:101E7000FD02F091FE02808188608083E091FD0286
:101E8000F091FE02808180688083E091FD02F091F4
:101E9000FE0280818F7D80838DED93E00E947E0B1A
:101EA00081ED93E00E947E0B85EC93E00E947E0B17
:101EB00089EB93E00E947E0B8DEA93E00E947E0BFB
:101EC00081EA93E00E947E0B85E993E00E947E0BFD
:101ED00089E893E00E947E0B1FB7F89480915A0224
:101EE000811124C0E7E7F2E08491EDEBF2E09491F8
:101EF000E82FF0E0EE0FFF1FE85DFD4FA591B491D4
:101F0000EC91E92321F461E085E30E94520385E32B
:101F10000E949B018CB580618CBD8CB580648CBDAA
:101F200084E30E949B0183E30E949B0180915A02FB
:101F30008F5F80935A021FBF8091F7038F3F09F490
:101F4000ABC09091F8039F3F09F4A6C0891731F008
:101F50000E949B018091F8030E949B018091F703EE
:101F60009091F803891719F060E00E94520381E014
:101F70000E94DE030E94F5034B015C0175E0C72E51
:101F8000D12CE12CF12C0E94F503681979098A09FA
:101F90009B09683E734081059105A8F321E0C21AB0
:101FA000D108E108F10888EE880E83E0981EA11C94
:101FB000B11CC114D104E104F10429F76FE584E0F8
:101FC0000E94430A86E00E94050A45E550E060E071
:101FD00070E040930B0450930C0460930D047093D5
:101FE0000E04682F677D86E00E94430A86E00E9407
:101FF000050A8DE10E94050A182F0E94370A8DE11B
:102000000E94050A91E0181390E09093050488233C
:1020100041F0181302C00E94370A60E08DE10E946F
:10202000430A1092070460E08CE10E94430A109278
:1020300009046FE381E00E94430A63E082E00E94AA
:10204000430A80E28093FE0311E16091FE03812F39
:102050000E94430A1F5F1731C1F763E083E00E94CB
:10206000430A85E0809308046CE40E94430A60E719
:1020700087E00E94430A82EE0E94F80981EE0E94E6
:10208000F8096CE080E00E94430A80E00E94050AA3
:10209000809304040E94560AE3E0F2E084914091A8
:1020A000080466E272E00E94170A82E00E94050AB4
:1020B000E9E0F2E0E49161E070E001C0660FEA95CA
:1020C000EAF7682B82E00E94430A0E94560A609158
:1020D000040461606093040480E00E94430A60E7A6
:1020E00087E00E94430A8091F7039091F8038917D3
:1020F00019F061E00E94520380910604882309F4DC
:10210000E0C0409108046FEF73E08AE00E94170A74
:102110006CE0D62ECE0101967C01E091E603F091B1
:10212000E703448955896689778980899189A289DD
:10213000B389481759076A077B0709F4D7C08DEDA3
:1021400093E00E942109E091DA03F091DB034489D6
:1021500055896689778980899189A289B3894817C9
:1021600059076A077B0709F4C6C081ED93E00E9416
:102170002109E091CE03F091CF0344895589668906
:10218000778980899189A289B389481759076A0795
:102190007B0709F4B5C085EC93E00E942109E0912A
:1021A000C203F091C3034489558966897789808980
:1021B0009189A289B389481759076A077B0709F4EF
:1021C000A4C089EB93E00E942109E091B603F0914D
:1021D000B703448955896689778980899189A2895D
:1021E000B389481759076A077B0721F08DEA93E006
:1021F0000E942109E091AA03F091AB03448955891B
:102200006689778980899189A289B3894817590796
:102210006A077B0721F081EA93E00E942109E0919F
:102220009E03F0919F034489558966897789808947
:102230009189A289B389481759076A077B0721F05A
:1022400085E993E00E942109E0919203F0919303C4
:10225000448955896689778980899189A289B3895A
:10226000481759076A077B0721F089E893E00E9425
:10227000210987E10E94050A80FD63C0F7012D2D29
:1022800011922A95E9F78091090410E00CE0811180
:1022900007C01091FE03012F1D3008F00CE0101B49
:1022A0000E94D00981E60E941A048093FD03570121
:1022B000015080F18FEF0E941A04F50181935F01B4
:1022C000F7CF82E00E94050AE8E0F2E0E49121E025
:1022D00030E001C0220FEA95EAF72095622F6823CB
:1022E00082E00E94430A1092060412CF8DED93E023
:1022F0000E94150928CF81ED93E00E94150939CF7E
:1023000085EC93E00E9415094ACF89EB93E00E9487
:1023100015095BCF115020F08FEF0E941A04FACFFD
:102320000E94F20360E487E00E94430A81E492E0A5
:102330000E94650AC7010E94650A8EE392E00E942E
:10234000650A8BEE92E00E947C02181619060CF0CA
:10235000DBC08BEE92E00E945A028133910509F0B6
:1023600077C063E070E082EF93E00E94210464E0B4
:1023700070E08FEE93E00E94210465E070E08CEE47
:1023800093E00E94210466E070E089EE93E00E94F1
:10239000210482EF93E00E94BA018FEE93E00E9445
:1023A000BA018CEE93E00E94BA0189EE93E00E949C
:1023B000BA018DEA93E00E94080981EA93E00E9445
:1023C000080985E993E00E94080989E893E00E94E2
:1023D00008094091D7035091D8034C525140052E23
:1023E000000C660B770B81ED93E00E949F094091F2
:1023F000E3035091E4034C525140052E000C660B50
:10240000770B8DED93E00E949F094091BF0350919F
:10241000C0034C525140052E000C660B770B89EB24
:1024200093E00E949F094091CB035091CC034C5202
:102430005140052E000C660B770B85EC93E00E9453
:102440009F098091D7039091D8030E94720A5CC0C3
:102450008233910509F05BC0E091F2038E2F90E08A
:10246000FC01EE0FFF1FE80FF91FE55AFD4F8081B9
:102470008F7B8083E091EF038E2F90E0FC01EE0FC5
:10248000FF1FE80FF91FE55AFD4F80818F7B808386
:10249000E091EC038E2F90E0FC01EE0FFF1FE80FA0
:1024A000F91FE55AFD4F80818F7B8083E091E9031E
:1024B0008E2F90E0FC01EE0FFF1FE80FF91FE55A89
:1024C000FD4F80818F7B808381ED93E00E94150911
:1024D0008DED93E00E94150989EB93E00E941509A8
:1024E00085EC93E00E9415098DEA93E00E9415099E
:1024F00081EA93E00E94150985E993E00E9415099D
:1025000089E893E00E9415090E94210306CEC39733
:10251000D9F763E070E082EF93E00E94210464E069
:1025200070E08FEE93E00E94210465E070E08CEE95
:1025300093E00E94210466E070E089EE93E00E943F
:10254000210482EF93E00E94BA018FEE93E00E9493
:10255000BA018CEE93E00E94BA0189EE93E00E94EA
:10256000BA018DEA93E00E94080981EA93E00E9493
:10257000080985E993E00E94080989E893E00E9430
:1025800008094091D7035091D803445D5E4F052E52
:10259000000C660B770B81ED93E00E949F09409140
:1025A000E3035091E403445D5E4F052E000C660B7F
:1025B000770B8DED93E00E949F094091BF035091EE
:1025C000C003445D5E4F052E000C660B770B89EB54
:1025D00093E00E949F094091CB035091CC03445D4E
:1025E0005E4F27CF052E97FB1EF400940E9409131F
:1025F00057FD07D00E941C1307FC03D04EF40C9427
:10260000091350954095309521953F4F4F4F5F4F9F
:10261000089590958095709561957F4F8F4F9F4F4E
:1026200008950E943E13A59F900DB49F900DA49F06
:10263000800D911D11240895A1E21A2EAA1BBB1B27
:10264000FD010DC0AA1FBB1FEE1FFF1FA217B3077E
:10265000E407F50720F0A21BB30BE40BF50B661F94
:10266000771F881F991F1A9469F760957095809558
:1026700090959B01AC01BD01CF010895A29FB001CF
:10268000B39FC001A39F700D811D1124911DB29FA6
:10269000700D811D1124911D08955058BB27AA2744
:1026A0000E9465130C94DF140E94D11438F00E942C
:1026B000D81420F039F49F3F19F426F40C94CE146A
:1026C0000EF4E095E7FB0C94C814E92F0E94F01477
:1026D00058F3BA17620773078407950720F079F457
:1026E000A6F50C9412150EF4E0950B2EBA2FA02D22
:1026F0000B01B90190010C01CA01A0011124FF27AF
:10270000591B99F0593F50F4503E68F11A16F040A9
:10271000A22F232F342F4427585FF3CF46953795A8
:102720002795A795F0405395C9F77EF41F16BA0B6D
:10273000620B730B840BBAF09150A1F0FF0FBB1F1B
:10274000661F771F881FC2F70EC0BA0F621F731F64
:10275000841F48F4879577956795B795F7959E3FC1
:1027600008F0B0CF9395880F08F09927EE0F979552
:10277000879508950E94A41408F481E008950E94AA
:10278000D3130C94DF140E94D81458F00E94D11473
:1027900040F029F45F3F29F00C94C81451110C94B7
:1027A00013150C94CE140E94F01468F39923B1F31E
:1027B000552391F3951B550BBB27AA276217730767
:1027C000840738F09F5F5F4F220F331F441FAA1FFB
:1027D000A9F335D00E2E3AF0E0E832D091505040B7
:1027E000E695001CCAF72BD0FE2F29D0660F771F65
:1027F000881FBB1F261737074807AB07B0E809F04B
:10280000BB0B802DBF01FF2793585F4F3AF09E3FCF
:10281000510578F00C94C8140C9413155F3FE4F341
:10282000983ED4F3869577956795B795F7959F5F12
:10283000C9F7880F911D9695879597F90895E1E05E
:10284000660F771F881FBB1F621773078407BA07BD
:1028500020F0621B730B840BBA0BEE1F88F7E09518
:1028600008950E9438146894B1110C9413150895BA
:102870000E94F81488F09F5798F0B92F9927B75104
:10288000B0F0E1F0660F771F881F991F1AF0BA9514
:10289000C9F714C0B13091F00E941215B1E008954B
:1028A0000C941215672F782F8827B85F39F0B93F3D
:1028B000CCF3869577956795B395D9F73EF49095C7
:1028C0008095709561957F4F8F4F9F4F0895E89445
:1028D00009C097FB3EF490958095709561957F4F68
:1028E0008F4F9F4F9923A9F0F92F96E9BB27939516
:1028F000F695879577956795B795F111F8CFFAF426
:10290000BB0F11F460FF1BC06F5F7F4F8F4F9F4F56
:1029100016C0882311F096E911C0772321F09EE8B4
:10292000872F762F05C0662371F096E8862F70E01A
:1029300060E02AF09A95660F771F881FDAF7880FF4
:102940009695879597F90895990F0008550FAA0B4A
:10295000E0E8FEEF16161706E807F907C0F01216B2
:102960001306E407F50798F0621B730B840B950BB5
:1029700039F40A2661F0232B242B252B21F408950A
:102980000A2609F4A140A6958FEF811D811D0895A7
:1029900097F99F6780E870E060E008959FEF80EC12
:1029A000089500240A9416161706180609060895B5
:1029B00000240A9412161306140605060895092E1B
:1029C0000394000C11F4882352F0BB0F40F4BF2B8A
:1029D00011F460FF04C06F5F7F4F8F4F9F4F0895CA
:1029E00057FD9058440F551F59F05F3F71F04795C0
:1029F000880F97FB991F61F09F3F79F087950895A5
:102A0000121613061406551FF2CF4695F1DF08C0C3
:102A1000161617061806991FF1CF869571056105E0
:102A200008940895E894BB2766277727CB0197F988
:102A300008950E94A41408F48FEF08950E943115A0
:102A40000C94DF140E94D11438F00E94D81420F0A6
:102A5000952311F00C94C8140C94CE1411240C94EA
:102A600013150E94F01470F3959FC1F3950F50E079
:102A7000551F629FF001729FBB27F00DB11D639F30
:102A8000AA27F00DB11DAA1F649F6627B00DA11DD6
:102A9000661F829F2227B00DA11D621F739FB00D7C
:102AA000A11D621F839FA00D611D221F749F3327EC
:102AB000A00D611D231F849F600D211D822F762F85
:102AC0006A2F11249F5750409AF0F1F088234AF062
:102AD000EE0FFF1FBB1F661F771F881F91505040CE
:102AE000A9F79E3F510580F00C94C8140C9413155F
:102AF0005F3FE4F3983ED4F3869577956795B79555
:102B0000F795E7959F5FC1F7FE2B880F911D96956E
:102B1000879597F9089519F416F40C94CE140C9433
:102B2000D1150E94F814B8F39923C9F3B6F39F574F
:102B3000550B87FF0E94DF150024A0E640EA9001B4
:102B400080585695979528F4805C660F771F881FEC
:102B500020F026173707480730F4621B730B840BED
:102B6000202931294A2BA695179407942025312531
:102B70004A2758F7660F771F881F20F02617370758
:102B8000480730F4620B730B840B200D311D411D7F
:102B9000A09581F7B901842F9158880F9695879554
:102BA00008959F3F31F0915020F487957795679570
:102BB000B795880F911D9695879597F9089591502F
:102BC0005040660F771F881FD2F70895991B79E050
:102BD00004C0991F961708F0961B881F7A95C9F7AD
:102BE00080950895EE0FFF1F881F8BBF0790F69109
:102BF000E02D19940F931F93CF93DF9382309105AB
:102C000010F482E090E0E0911504F091160430E0B9
:102C100020E0B0E0A0E0309799F42115310509F4E7
:102C20004AC0281B390B24303105D8F58A819B8195
:102C30006115710589F1FB0193838283FE0111C047
:102C4000408151810281138148175907E0F04817EC
:102C5000590799F4109761F012960C9312971396F6
:102C60001C933296CF01DF91CF911F910F91089560
:102C70000093150410931604F4CF2115310551F07B
:102C80004217530738F0A901DB019A01BD01DF01AA
:102C9000F801C1CFEF01F9CF90931604809315048A
:102CA000CDCFFE01E20FF31F8193919322503109A2
:102CB00039832883D7CF2091130430911404232B18
:102CC00041F42091020230910302309314042093C6
:102CD000130420910002309101022115310541F4C5
:102CE0002DB73EB74091040250910502241B350BCD
:102CF000E0911304F0911404E217F307A0F42E1BE3
:102D00003F0B2817390778F0AC014E5F5F4F24174F
:102D1000350748F04E0F5F1F50931404409313047F
:102D2000819391939FCFF0E0E0E09CCFCF93DF932E
:102D30000097E9F0FC01329713821282A0911504EA
:102D4000B0911604ED0130E020E01097A1F420814D
:102D50003181820F931F209113043091140428179E
:102D6000390709F061C0F0931404E0931304DF9174
:102D7000CF910895EA01CE17DF07E8F54A815B811C
:102D80009E0141155105B1F7E901FB83EA834991A1
:102D90005991C40FD51FEC17FD0761F48081918113
:102DA0000296840F951FE90199838883828193811C
:102DB0009B838A83F0E0E0E012968D919C911397BB
:102DC0000097B9F52D913C911197CD010296820F94
:102DD000931F20911304309114042817390739F6F2
:102DE000309751F51092160410921504B093140404
:102DF000A0931304BCCFD383C28340815181840F3D
:102E0000951FC817D90761F44E5F5F4F888199817C
:102E1000480F591F518340838A819B81938382830A
:102E20002115310509F0B0CFF0931604E093150495
:102E30009ECFFD01DC01C0CF13821282D7CFF89460
:022E4000FFCFC2
:102E420000001704800000000000C2059405070975
:102E5200C70BAE07260764071007DE06BD06890604
:102E620068061206DF053030303031000000000005
:102E7200B4021E024B0201037C025A026E020D0AC8
:0C2E8200004F64656272616E6F3A2000C0
:00000001FF
